{"abi":[{"type":"constructor","inputs":[],"stateMutability":"nonpayable"},{"type":"function","name":"confirmPayment","inputs":[{"name":"paymentId","type":"string","internalType":"string"},{"name":"txHash","type":"bytes32","internalType":"bytes32"}],"outputs":[],"stateMutability":"nonpayable"},{"type":"function","name":"getProof","inputs":[{"name":"paymentId","type":"string","internalType":"string"}],"outputs":[{"name":"","type":"tuple","internalType":"struct InvoicePaymentProof.PaymentProof","components":[{"name":"paymentId","type":"string","internalType":"string"},{"name":"merchant","type":"address","internalType":"address"},{"name":"payer","type":"address","internalType":"address"},{"name":"amount","type":"uint256","internalType":"uint256"},{"name":"currency","type":"string","internalType":"string"},{"name":"txHash","type":"bytes32","internalType":"bytes32"},{"name":"timestamp","type":"uint256","internalType":"uint256"},{"name":"exists","type":"bool","internalType":"bool"}]}],"stateMutability":"view"},{"type":"function","name":"getTxHash","inputs":[{"name":"paymentId","type":"string","internalType":"string"}],"outputs":[{"name":"","type":"bytes32","internalType":"bytes32"}],"stateMutability":"view"},{"type":"function","name":"owner","inputs":[],"outputs":[{"name":"","type":"address","internalType":"address"}],"stateMutability":"view"},{"type":"function","name":"proofExists","inputs":[{"name":"paymentId","type":"string","internalType":"string"}],"outputs":[{"name":"","type":"bool","internalType":"bool"}],"stateMutability":"view"},{"type":"function","name":"recordProof","inputs":[{"name":"paymentId","type":"string","internalType":"string"},{"name":"merchant","type":"address","internalType":"address"},{"name":"payer","type":"address","internalType":"address"},{"name":"amount","type":"uint256","internalType":"uint256"},{"name":"currency","type":"string","internalType":"string"},{"name":"txHash","type":"bytes32","internalType":"bytes32"}],"outputs":[],"stateMutability":"nonpayable"},{"type":"function","name":"renounceOwnership","inputs":[],"outputs":[],"stateMutability":"nonpayable"},{"type":"function","name":"transferOwnership","inputs":[{"name":"newOwner","type":"address","internalType":"address"}],"outputs":[],"stateMutability":"nonpayable"},{"type":"event","name":"OwnershipTransferred","inputs":[{"name":"previousOwner","type":"address","indexed":true,"internalType":"address"},{"name":"newOwner","type":"address","indexed":true,"internalType":"address"}],"anonymous":false},{"type":"event","name":"PaymentConfirmed","inputs":[{"name":"paymentId","type":"string","indexed":true,"internalType":"string"},{"name":"txHash","type":"bytes32","indexed":true,"internalType":"bytes32"},{"name":"timestamp","type":"uint256","indexed":false,"internalType":"uint256"}],"anonymous":false},{"type":"event","name":"PaymentCreated","inputs":[{"name":"paymentId","type":"string","indexed":true,"internalType":"string"},{"name":"merchant","type":"address","indexed":true,"internalType":"address"},{"name":"payer","type":"address","indexed":true,"internalType":"address"},{"name":"amount","type":"uint256","indexed":false,"internalType":"uint256"},{"name":"currency","type":"string","indexed":false,"internalType":"string"},{"name":"txHash","type":"bytes32","indexed":false,"internalType":"bytes32"},{"name":"timestamp","type":"uint256","indexed":false,"internalType":"uint256"}],"anonymous":false},{"type":"error","name":"OwnableInvalidOwner","inputs":[{"name":"owner","type":"address","internalType":"address"}]},{"type":"error","name":"OwnableUnauthorizedAccount","inputs":[{"name":"account","type":"address","internalType":"address"}]}],"bytecode":{"object":"0x6080604052348015600e575f5ffd5b503380603357604051631e4fbdf760e01b81525f600482015260240160405180910390fd5b603a81603f565b50608e565b5f80546001600160a01b038381166001600160a01b0319831681178455604051919092169283917f8be0079c531659141344cd1fd0a4f28419497f9722a3daafe3b4186f6b6457e09190a35050565b610e4a8061009b5f395ff3fe608060405234801561000f575f5ffd5b5060043610610085575f3560e01c8063c552ba0411610058578063c552ba04146100e8578063d57763a1146100fb578063f2fde38b1461011b578063f4d1eb1e1461012e575f5ffd5b806354d4ecfe14610089578063715018a61461009e57806379c7c806146100a65780638da5cb5b146100ce575b5f5ffd5b61009c6100973660046109ec565b61014f565b005b61009c610244565b6100b96100b4366004610a2e565b610257565b60405190151581526020015b60405180910390f35b5f546040516001600160a01b0390911681526020016100c5565b61009c6100f6366004610a83565b610281565b61010e610109366004610a2e565b6105f6565b6040516100c59190610b49565b61009c610129366004610bed565b61082c565b61014161013c366004610a2e565b610869565b6040519081526020016100c5565b6101576108d2565b6002826040516101679190610c0d565b9081526040519081900360200190205460ff166101da5760405162461bcd60e51b815260206004820152602660248201527f496e766f6963655061796d656e7450726f6f663a207061796d656e74206e6f7460448201526508199bdd5b9960d21b60648201526084015b60405180910390fd5b806101f75760405162461bcd60e51b81526004016101d190610c23565b80826040516102069190610c0d565b604051908190038120428252907f8e46bbba883300110c111204846d8472a3f87a1747ffda3c248b0da7577560bf9060200160405180910390a35050565b61024c6108d2565b6102555f6108fe565b565b5f6002826040516102689190610c0d565b9081526040519081900360200190205460ff1692915050565b6102896108d2565b5f8651116102e85760405162461bcd60e51b815260206004820152602660248201527f496e766f6963655061796d656e7450726f6f663a20696e76616c6964207061796044820152651b595b9d125960d21b60648201526084016101d1565b6001600160a01b03851661034c5760405162461bcd60e51b815260206004820152602560248201527f496e766f6963655061796d656e7450726f6f663a20696e76616c6964206d657260448201526418da185b9d60da1b60648201526084016101d1565b6001600160a01b0384166103ad5760405162461bcd60e51b815260206004820152602260248201527f496e766f6963655061796d656e7450726f6f663a20696e76616c69642070617960448201526132b960f11b60648201526084016101d1565b806103ca5760405162461bcd60e51b81526004016101d190610c23565b6002866040516103da9190610c0d565b9081526040519081900360200190205460ff16156104505760405162461bcd60e51b815260206004820152602d60248201527f496e766f6963655061796d656e7450726f6f663a207061796d656e744964206160448201526c6c72656164792065786973747360981b60648201526084016101d1565b5f604051806101000160405280888152602001876001600160a01b03168152602001866001600160a01b03168152602001858152602001848152602001838152602001428152602001600115158152509050806001886040516104b39190610c0d565b908152604051908190036020019020815181906104d09082610cea565b5060208201516001820180546001600160a01b039283166001600160a01b031991821617909155604084015160028401805491909316911617905560608201516003820155608082015160048201906105299082610cea565b5060a0820151600582015560c0820151600682015560e0909101516007909101805460ff191691151591909117905560405160019060029061056c908a90610c0d565b908152604051908190036020018120805492151560ff19909316929092179091556001600160a01b0380871691908816906105a8908a90610c0d565b60405180910390207f3f9d341923b9af1f6c551d53f786f96b4d4e96726219c9afcf8e5e5ab3055210878787426040516105e59493929190610da5565b60405180910390a450505050505050565b61064c604051806101000160405280606081526020015f6001600160a01b031681526020015f6001600160a01b031681526020015f8152602001606081526020015f81526020015f81526020015f151581525090565b60028260405161065c9190610c0d565b9081526040519081900360200190205460ff1661068b5760405162461bcd60e51b81526004016101d190610dd0565b60018260405161069b9190610c0d565b9081526020016040518091039020604051806101000160405290815f820180546106c490610c66565b80601f01602080910402602001604051908101604052809291908181526020018280546106f090610c66565b801561073b5780601f106107125761010080835404028352916020019161073b565b820191905f5260205f20905b81548152906001019060200180831161071e57829003601f168201915b505050918352505060018201546001600160a01b03908116602083015260028301541660408201526003820154606082015260048201805460809092019161078290610c66565b80601f01602080910402602001604051908101604052809291908181526020018280546107ae90610c66565b80156107f95780601f106107d0576101008083540402835291602001916107f9565b820191905f5260205f20905b8154815290600101906020018083116107dc57829003601f168201915b5050509183525050600582015460208201526006820154604082015260079091015460ff16151560609091015292915050565b6108346108d2565b6001600160a01b03811661085d57604051631e4fbdf760e01b81525f60048201526024016101d1565b610866816108fe565b50565b5f60028260405161087a9190610c0d565b9081526040519081900360200190205460ff166108a95760405162461bcd60e51b81526004016101d190610dd0565b6001826040516108b99190610c0d565b9081526020016040518091039020600501549050919050565b5f546001600160a01b031633146102555760405163118cdaa760e01b81523360048201526024016101d1565b5f80546001600160a01b038381166001600160a01b0319831681178455604051919092169283917f8be0079c531659141344cd1fd0a4f28419497f9722a3daafe3b4186f6b6457e09190a35050565b634e487b7160e01b5f52604160045260245ffd5b5f82601f830112610970575f5ffd5b813567ffffffffffffffff81111561098a5761098a61094d565b604051601f8201601f19908116603f0116810167ffffffffffffffff811182821017156109b9576109b961094d565b6040528181528382016020018510156109d0575f5ffd5b816020850160208301375f918101602001919091529392505050565b5f5f604083850312156109fd575f5ffd5b823567ffffffffffffffff811115610a13575f5ffd5b610a1f85828601610961565b95602094909401359450505050565b5f60208284031215610a3e575f5ffd5b813567ffffffffffffffff811115610a54575f5ffd5b610a6084828501610961565b949350505050565b80356001600160a01b0381168114610a7e575f5ffd5b919050565b5f5f5f5f5f5f60c08789031215610a98575f5ffd5b863567ffffffffffffffff811115610aae575f5ffd5b610aba89828a01610961565b965050610ac960208801610a68565b9450610ad760408801610a68565b935060608701359250608087013567ffffffffffffffff811115610af9575f5ffd5b610b0589828a01610961565b9699959850939692959460a09093013593505050565b5f81518084528060208401602086015e5f602082860101526020601f19601f83011685010191505092915050565b602081525f82516101006020840152610b66610120840182610b1b565b905060018060a01b0360208501511660408401526040840151610b9460608501826001600160a01b03169052565b50606084015160808401526080840151601f198483030160a0850152610bba8282610b1b565b91505060a084015160c084015260c084015160e084015260e0840151610be561010085018215159052565b509392505050565b5f60208284031215610bfd575f5ffd5b610c0682610a68565b9392505050565b5f82518060208501845e5f920191825250919050565b60208082526023908201527f496e766f6963655061796d656e7450726f6f663a20696e76616c6964207478486040820152620c2e6d60eb1b606082015260800190565b600181811c90821680610c7a57607f821691505b602082108103610c9857634e487b7160e01b5f52602260045260245ffd5b50919050565b601f821115610ce557805f5260205f20601f840160051c81016020851015610cc35750805b601f840160051c820191505b81811015610ce2575f8155600101610ccf565b50505b505050565b815167ffffffffffffffff811115610d0457610d0461094d565b610d1881610d128454610c66565b84610c9e565b6020601f821160018114610d4a575f8315610d335750848201515b5f19600385901b1c1916600184901b178455610ce2565b5f84815260208120601f198516915b82811015610d795787850151825560209485019460019092019101610d59565b5084821015610d9657868401515f19600387901b60f8161c191681555b50505050600190811b01905550565b848152608060208201525f610dbd6080830186610b1b565b6040830194909452506060015292915050565b60208082526024908201527f496e766f6963655061796d656e7450726f6f663a2070726f6f66206e6f7420666040820152631bdd5b9960e21b60608201526080019056fea26469706673582212205170bafbcb6937bd93a9dcfa46d0dc2f0c61e63e98821fe2857312a62bb51c2d64736f6c634300081e0033","linkReferences":{}},"methodIdentifiers":{"confirmPayment(string,bytes32)":"54d4ecfe","getProof(string)":"d57763a1","getTxHash(string)":"f4d1eb1e","owner()":"8da5cb5b","proofExists(string)":"79c7c806","recordProof(string,address,address,uint256,string,bytes32)":"c552ba04","renounceOwnership()":"715018a6","transferOwnership(address)":"f2fde38b"},"id":32}