{"abi":[{"type":"constructor","inputs":[{"name":"name","type":"string","internalType":"string"},{"name":"symbol","type":"string","internalType":"string"}],"stateMutability":"nonpayable"},{"type":"function","name":"approve","inputs":[{"name":"","type":"address","internalType":"address"},{"name":"","type":"uint256","internalType":"uint256"}],"outputs":[],"stateMutability":"pure"},{"type":"function","name":"balanceOf","inputs":[{"name":"owner","type":"address","internalType":"address"}],"outputs":[{"name":"","type":"uint256","internalType":"uint256"}],"stateMutability":"view"},{"type":"function","name":"getApproved","inputs":[{"name":"tokenId","type":"uint256","internalType":"uint256"}],"outputs":[{"name":"","type":"address","internalType":"address"}],"stateMutability":"view"},{"type":"function","name":"getBadgeTokenId","inputs":[{"name":"merchant","type":"address","internalType":"address"}],"outputs":[{"name":"","type":"uint256","internalType":"uint256"}],"stateMutability":"view"},{"type":"function","name":"hasBadge","inputs":[{"name":"merchant","type":"address","internalType":"address"}],"outputs":[{"name":"","type":"bool","internalType":"bool"}],"stateMutability":"view"},{"type":"function","name":"isApprovedForAll","inputs":[{"name":"owner","type":"address","internalType":"address"},{"name":"operator","type":"address","internalType":"address"}],"outputs":[{"name":"","type":"bool","internalType":"bool"}],"stateMutability":"view"},{"type":"function","name":"mint","inputs":[{"name":"merchant","type":"address","internalType":"address"}],"outputs":[],"stateMutability":"nonpayable"},{"type":"function","name":"name","inputs":[],"outputs":[{"name":"","type":"string","internalType":"string"}],"stateMutability":"view"},{"type":"function","name":"owner","inputs":[],"outputs":[{"name":"","type":"address","internalType":"address"}],"stateMutability":"view"},{"type":"function","name":"ownerOf","inputs":[{"name":"tokenId","type":"uint256","internalType":"uint256"}],"outputs":[{"name":"","type":"address","internalType":"address"}],"stateMutability":"view"},{"type":"function","name":"renounceOwnership","inputs":[],"outputs":[],"stateMutability":"nonpayable"},{"type":"function","name":"safeTransferFrom","inputs":[{"name":"from","type":"address","internalType":"address"},{"name":"to","type":"address","internalType":"address"},{"name":"tokenId","type":"uint256","internalType":"uint256"}],"outputs":[],"stateMutability":"nonpayable"},{"type":"function","name":"safeTransferFrom","inputs":[{"name":"","type":"address","internalType":"address"},{"name":"","type":"address","internalType":"address"},{"name":"","type":"uint256","internalType":"uint256"},{"name":"","type":"bytes","internalType":"bytes"}],"outputs":[],"stateMutability":"pure"},{"type":"function","name":"setApprovalForAll","inputs":[{"name":"","type":"address","internalType":"address"},{"name":"","type":"bool","internalType":"bool"}],"outputs":[],"stateMutability":"pure"},{"type":"function","name":"supportsInterface","inputs":[{"name":"interfaceId","type":"bytes4","internalType":"bytes4"}],"outputs":[{"name":"","type":"bool","internalType":"bool"}],"stateMutability":"view"},{"type":"function","name":"symbol","inputs":[],"outputs":[{"name":"","type":"string","internalType":"string"}],"stateMutability":"view"},{"type":"function","name":"tokenURI","inputs":[{"name":"tokenId","type":"uint256","internalType":"uint256"}],"outputs":[{"name":"","type":"string","internalType":"string"}],"stateMutability":"pure"},{"type":"function","name":"transferFrom","inputs":[{"name":"","type":"address","internalType":"address"},{"name":"","type":"address","internalType":"address"},{"name":"","type":"uint256","internalType":"uint256"}],"outputs":[],"stateMutability":"pure"},{"type":"function","name":"transferOwnership","inputs":[{"name":"newOwner","type":"address","internalType":"address"}],"outputs":[],"stateMutability":"nonpayable"},{"type":"event","name":"Approval","inputs":[{"name":"owner","type":"address","indexed":true,"internalType":"address"},{"name":"approved","type":"address","indexed":true,"internalType":"address"},{"name":"tokenId","type":"uint256","indexed":true,"internalType":"uint256"}],"anonymous":false},{"type":"event","name":"ApprovalForAll","inputs":[{"name":"owner","type":"address","indexed":true,"internalType":"address"},{"name":"operator","type":"address","indexed":true,"internalType":"address"},{"name":"approved","type":"bool","indexed":false,"internalType":"bool"}],"anonymous":false},{"type":"event","name":"MerchantBadgeMinted","inputs":[{"name":"merchant","type":"address","indexed":true,"internalType":"address"},{"name":"tokenId","type":"uint256","indexed":true,"internalType":"uint256"}],"anonymous":false},{"type":"event","name":"OwnershipTransferred","inputs":[{"name":"previousOwner","type":"address","indexed":true,"internalType":"address"},{"name":"newOwner","type":"address","indexed":true,"internalType":"address"}],"anonymous":false},{"type":"event","name":"Transfer","inputs":[{"name":"from","type":"address","indexed":true,"internalType":"address"},{"name":"to","type":"address","indexed":true,"internalType":"address"},{"name":"tokenId","type":"uint256","indexed":true,"internalType":"uint256"}],"anonymous":false},{"type":"error","name":"ERC721IncorrectOwner","inputs":[{"name":"sender","type":"address","internalType":"address"},{"name":"tokenId","type":"uint256","internalType":"uint256"},{"name":"owner","type":"address","internalType":"address"}]},{"type":"error","name":"ERC721InsufficientApproval","inputs":[{"name":"operator","type":"address","internalType":"address"},{"name":"tokenId","type":"uint256","internalType":"uint256"}]},{"type":"error","name":"ERC721InvalidApprover","inputs":[{"name":"approver","type":"address","internalType":"address"}]},{"type":"error","name":"ERC721InvalidOperator","inputs":[{"name":"operator","type":"address","internalType":"address"}]},{"type":"error","name":"ERC721InvalidOwner","inputs":[{"name":"owner","type":"address","internalType":"address"}]},{"type":"error","name":"ERC721InvalidReceiver","inputs":[{"name":"receiver","type":"address","internalType":"address"}]},{"type":"error","name":"ERC721InvalidSender","inputs":[{"name":"sender","type":"address","internalType":"address"}]},{"type":"error","name":"ERC721NonexistentToken","inputs":[{"name":"tokenId","type":"uint256","internalType":"uint256"}]},{"type":"error","name":"OwnableInvalidOwner","inputs":[{"name":"owner","type":"address","internalType":"address"}]},{"type":"error","name":"OwnableUnauthorizedAccount","inputs":[{"name":"account","type":"address","internalType":"address"}]}],"bytecode":{"object":"0x608060405234801561000f575f5ffd5b5060405161135b38038061135b83398101604081905261002e9161017d565b3382825f61003c8382610266565b5060016100498282610266565b5050506001600160a01b03811661007957604051631e4fbdf760e01b81525f600482015260240160405180910390fd5b6100828161008f565b5050600160095550610320565b600680546001600160a01b038381166001600160a01b0319831681179093556040519116919082907f8be0079c531659141344cd1fd0a4f28419497f9722a3daafe3b4186f6b6457e0905f90a35050565b634e487b7160e01b5f52604160045260245ffd5b5f82601f830112610103575f5ffd5b81516001600160401b0381111561011c5761011c6100e0565b604051601f8201601f19908116603f011681016001600160401b038111828210171561014a5761014a6100e0565b604052818152838201602001851015610161575f5ffd5b8160208501602083015e5f918101602001919091529392505050565b5f5f6040838503121561018e575f5ffd5b82516001600160401b038111156101a3575f5ffd5b6101af858286016100f4565b602085015190935090506001600160401b038111156101cc575f5ffd5b6101d8858286016100f4565b9150509250929050565b600181811c908216806101f657607f821691505b60208210810361021457634e487b7160e01b5f52602260045260245ffd5b50919050565b601f82111561026157805f5260205f20601f840160051c8101602085101561023f5750805b601f840160051c820191505b8181101561025e575f815560010161024b565b50505b505050565b81516001600160401b0381111561027f5761027f6100e0565b6102938161028d84546101e2565b8461021a565b6020601f8211600181146102c5575f83156102ae5750848201515b5f19600385901b1c1916600184901b17845561025e565b5f84815260208120601f198516915b828110156102f457878501518255602094850194600190920191016102d4565b508482101561031157868401515f19600387901b60f8161c191681555b50505050600190811b01905550565b61102e8061032d5f395ff3fe608060405234801561000f575f5ffd5b506004361061011c575f3560e01c80636a627842116100a9578063a22cb4651161006e578063a22cb46514610278578063b88d4fde14610286578063c87b56dd14610294578063e985e9c5146102a7578063f2fde38b146102ba575f5ffd5b80636a6278421461023157806370a0823114610244578063715018a6146102575780638da5cb5b1461025f57806395d89b4114610270575f5ffd5b806323b872dd116100ef57806323b872dd1461019d57806342842e0e146101ab5780635a23c48f146101be5780635e50864f146101f45780636352211e1461021e575f5ffd5b806301ffc9a71461012057806306fdde0314610148578063081812fc1461015d578063095ea7b314610188575b5f5ffd5b61013361012e366004610c99565b6102cd565b60405190151581526020015b60405180910390f35b61015061031e565b60405161013f9190610ce9565b61017061016b366004610cfb565b6103ad565b6040516001600160a01b03909116815260200161013f565b61019b610196366004610d2d565b6103d4565b005b61019b610196366004610d55565b61019b6101b9366004610d55565b610421565b6101e66101cc366004610d8f565b6001600160a01b03165f9081526007602052604090205490565b60405190815260200161013f565b610133610202366004610d8f565b6001600160a01b03165f90815260076020526040902054151590565b61017061022c366004610cfb565b610440565b61019b61023f366004610d8f565b61044a565b6101e6610252366004610d8f565b6105aa565b61019b6105ef565b6006546001600160a01b0316610170565b610150610602565b61019b610196366004610da8565b61019b610196366004610df5565b6101506102a2366004610cfb565b610611565b6101336102b5366004610ed2565b610681565b61019b6102c8366004610d8f565b6106ae565b5f6001600160e01b031982166380ac58cd60e01b14806102fd57506001600160e01b03198216635b5e139f60e01b145b8061031857506301ffc9a760e01b6001600160e01b03198316145b92915050565b60605f805461032c90610f03565b80601f016020809104026020016040519081016040528092919081815260200182805461035890610f03565b80156103a35780601f1061037a576101008083540402835291602001916103a3565b820191905f5260205f20905b81548152906001019060200180831161038657829003601f168201915b5050505050905090565b5f6103b7826106eb565b505f828152600460205260409020546001600160a01b0316610318565b60405162461bcd60e51b815260206004820152601f60248201527f4d65726368616e7442616467653a206e6f6e2d7472616e7366657261626c650060448201526064015b60405180910390fd5b61043b83838360405180602001604052805f8152506103d4565b505050565b5f610318826106eb565b610452610723565b6001600160a01b0381166104a85760405162461bcd60e51b815260206004820152601e60248201527f4d65726368616e7442616467653a20696e76616c6964206164647265737300006044820152606401610418565b6001600160a01b0381165f90815260076020526040902054156105195760405162461bcd60e51b815260206004820152602360248201527f4d65726368616e7442616467653a20626164676520616c7265616479206d696e6044820152621d195960ea1b6064820152608401610418565b600980549081905f61052a83610f3b565b90915550506001600160a01b0382165f8181526007602090815260408083208590558483526008909152902080546001600160a01b03191690911790556105718282610750565b60405181906001600160a01b038416907f3efd3170845cde1020410dcfb0c008e6d90c6c416dff20e90709289c5b81a169905f90a35050565b5f6001600160a01b0382166105d4576040516322718ad960e21b81525f6004820152602401610418565b506001600160a01b03165f9081526003602052604090205490565b6105f7610723565b6106005f61076d565b565b60606001805461032c90610f03565b60605f82116106625760405162461bcd60e51b815260206004820152601f60248201527f4d65726368616e7442616467653a20696e76616c696420746f6b656e204944006044820152606401610418565b604051806080016040528060428152602001610fb76042913992915050565b6001600160a01b039182165f90815260056020908152604080832093909416825291909152205460ff1690565b6106b6610723565b6001600160a01b0381166106df57604051631e4fbdf760e01b81525f6004820152602401610418565b6106e88161076d565b50565b5f818152600260205260408120546001600160a01b03168061031857604051637e27328960e01b815260048101849052602401610418565b6006546001600160a01b031633146106005760405163118cdaa760e01b8152336004820152602401610418565b610769828260405180602001604052805f8152506107be565b5050565b600680546001600160a01b038381166001600160a01b0319831681179093556040519116919082907f8be0079c531659141344cd1fd0a4f28419497f9722a3daafe3b4186f6b6457e0905f90a35050565b6107c883836107d5565b61043b335f858585610836565b6001600160a01b0382166107fe57604051633250574960e11b81525f6004820152602401610418565b5f61080a83835f61095e565b90506001600160a01b0381161561043b576040516339e3563760e11b81525f6004820152602401610418565b6001600160a01b0383163b1561095757604051630a85bd0160e11b81526001600160a01b0384169063150b7a0290610878908890889087908790600401610f5f565b6020604051808303815f875af19250505080156108b2575060408051601f3d908101601f191682019092526108af91810190610f9b565b60015b610919573d8080156108df576040519150601f19603f3d011682016040523d82523d5f602084013e6108e4565b606091505b5080515f0361091157604051633250574960e11b81526001600160a01b0385166004820152602401610418565b805160208201fd5b6001600160e01b03198116630a85bd0160e11b1461095557604051633250574960e11b81526001600160a01b0385166004820152602401610418565b505b5050505050565b5f6001600160a01b038416156109b65760405162461bcd60e51b815260206004820152601f60248201527f4d65726368616e7442616467653a206e6f6e2d7472616e7366657261626c65006044820152606401610418565b6109c18484846109c9565b949350505050565b5f828152600260205260408120546001600160a01b03908116908316156109f5576109f5818486610abb565b6001600160a01b03811615610a2f57610a105f855f5f610b1f565b6001600160a01b0381165f90815260036020526040902080545f190190555b6001600160a01b03851615610a5d576001600160a01b0385165f908152600360205260409020805460010190555b5f8481526002602052604080822080546001600160a01b0319166001600160a01b0389811691821790925591518793918516917fddf252ad1be2c89b69c2b068fc378daa952ba7f163c4a11628f55a4df523b3ef91a4949350505050565b610ac6838383610c23565b61043b576001600160a01b038316610af457604051637e27328960e01b815260048101829052602401610418565b60405163177e802f60e01b81526001600160a01b038316600482015260248101829052604401610418565b8080610b3357506001600160a01b03821615155b15610bf4575f610b42846106eb565b90506001600160a01b03831615801590610b6e5750826001600160a01b0316816001600160a01b031614155b8015610b815750610b7f8184610681565b155b15610baa5760405163a9fbf51f60e01b81526001600160a01b0384166004820152602401610418565b8115610bf25783856001600160a01b0316826001600160a01b03167f8c5be1e5ebec7d5bd14f71427d1e84f3dd0314c0f7b2291e5b200ac8c7c3b92560405160405180910390a45b505b50505f90815260046020526040902080546001600160a01b0319166001600160a01b0392909216919091179055565b5f6001600160a01b038316158015906109c15750826001600160a01b0316846001600160a01b03161480610c5c5750610c5c8484610681565b806109c15750505f908152600460205260409020546001600160a01b03908116911614919050565b6001600160e01b0319811681146106e8575f5ffd5b5f60208284031215610ca9575f5ffd5b8135610cb481610c84565b9392505050565b5f81518084528060208401602086015e5f602082860101526020601f19601f83011685010191505092915050565b602081525f610cb46020830184610cbb565b5f60208284031215610d0b575f5ffd5b5035919050565b80356001600160a01b0381168114610d28575f5ffd5b919050565b5f5f60408385031215610d3e575f5ffd5b610d4783610d12565b946020939093013593505050565b5f5f5f60608486031215610d67575f5ffd5b610d7084610d12565b9250610d7e60208501610d12565b929592945050506040919091013590565b5f60208284031215610d9f575f5ffd5b610cb482610d12565b5f5f60408385031215610db9575f5ffd5b610dc283610d12565b915060208301358015158114610dd6575f5ffd5b809150509250929050565b634e487b7160e01b5f52604160045260245ffd5b5f5f5f5f60808587031215610e08575f5ffd5b610e1185610d12565b9350610e1f60208601610d12565b925060408501359150606085013567ffffffffffffffff811115610e41575f5ffd5b8501601f81018713610e51575f5ffd5b803567ffffffffffffffff811115610e6b57610e6b610de1565b604051601f8201601f19908116603f0116810167ffffffffffffffff81118282101715610e9a57610e9a610de1565b604052818152828201602001891015610eb1575f5ffd5b816020840160208301375f6020838301015280935050505092959194509250565b5f5f60408385031215610ee3575f5ffd5b610eec83610d12565b9150610efa60208401610d12565b90509250929050565b600181811c90821680610f1757607f821691505b602082108103610f3557634e487b7160e01b5f52602260045260245ffd5b50919050565b5f60018201610f5857634e487b7160e01b5f52601160045260245ffd5b5060010190565b6001600160a01b03858116825284166020820152604081018390526080606082018190525f90610f9190830184610cbb565b9695505050505050565b5f60208284031215610fab575f5ffd5b8151610cb481610c8456fe697066733a2f2f6261666b726569613479696f6276627063673774716f653474796265736f747062727979717577756d747065666e6a6267793277346b6e74626869a2646970667358221220c6a8e05d5f0e49ff04ff00cbbfc08725cda7f853fcd8a3bb74840ef512d688ce64736f6c634300081e0033","linkReferences":{}},"methodIdentifiers":{"approve(address,uint256)":"095ea7b3","balanceOf(address)":"70a08231","getApproved(uint256)":"081812fc","getBadgeTokenId(address)":"5a23c48f","hasBadge(address)":"5e50864f","isApprovedForAll(address,address)":"e985e9c5","mint(address)":"6a627842","name()":"06fdde03","owner()":"8da5cb5b","ownerOf(uint256)":"6352211e","renounceOwnership()":"715018a6","safeTransferFrom(address,address,uint256)":"42842e0e","safeTransferFrom(address,address,uint256,bytes)":"b88d4fde","setApprovalForAll(address,bool)":"a22cb465","supportsInterface(bytes4)":"01ffc9a7","symbol()":"95d89b41","tokenURI(uint256)":"c87b56dd","transferFrom(address,address,uint256)":"23b872dd","transferOwnership(address)":"f2fde38b"},"id":33}